:0600000000F06CEF08F0B7
:100600000020206F7020206F20312020202020200B
:1006100020200020206F7020206F203220202020FA
:100620002020202000766F6C7461723C3C707265F3
:100630007373204232006F7020206F2031006F7082
:1006400020206F2032005B454E5445525D003E0035
:0106500000A9
:10065200FFFFB8EC08F048EC07F0000E206E000E29
:10066200216E000E226E010E266E010E236E010E09
:10067200246E010E256E12EC07F0010E7EEC07F0DF
:10068200FFFF81BA47EF03F04AEF03F0FFFF57EF96
:1006920003F0FFFF270E1F6EFC0EFFFFE82EFDD7B3
:1006A2001F2EFBD7010E206E6DEF03F0FFFF81AA14
:1006B2005DEF03F060EF03F0FFFF6DEF03F0FFFF6C
:1006C200270E1F6EFC0EFFFFE82EFDD71F2EFBD755
:1006D200000E206E010E246EFFFF81B873EF03F04F
:1006E20076EF03F0FFFF83EF03F0FFFF270E1F6E8D
:1006F200FC0EFFFFE82EFDD71F2EFBD7010E216E49
:1007020097EF03F0FFFF81A889EF03F08CEF03F06E
:10071200FFFF97EF03F0FFFF270E1F6EFC0EFFFF98
:10072200E82EFDD71F2EFBD7000E216EFFFF81B6EC
:100732009DEF03F0A0EF03F0FFFFADEF03F0FFFF2B
:10074200270E1F6EFC0EFFFFE82EFDD71F2EFBD7D4
:10075200010E226EC3EF03F0FFFF81A6B3EF03F099
:10076200B6EF03F0FFFFC3EF03F0FFFF270E1F6E8C
:10077200FC0EFFFFE82EFDD71F2EFBD7000E226EC8
:10078200010E236EFFFF2004D8A4CAEF03F0CDEFC1
:1007920003F0FFFFFBEF03F0FFFF2404D8A4D4EF24
:1007A20003F0D7EF03F0FFFFFBEF03F0FFFF250499
:1007B200D8A4DEEF03F0E1EF03F0FFFFFBEF03F05D
:1007C200FFFF2604D8B4E8EF03F0EBEF03F0FFFFDE
:1007D200F0EF03F0FFFF010E266EF3EF03F0FFFFD1
:1007E200020E266EFFFF26507EEC07F0000E246EEE
:1007F20041EF03F0FFFF2104D8A402EF04F005EF5C
:1008020004F0FFFF30EF04F0FFFF2504D8A40CEF43
:1008120004F00FEF04F0FFFF30EF04F0FFFF000ED3
:10082200256E2604D8A418EF04F01BEF04F0FFFF96
:1008320020EF04F0FFFF04EC08F041EF03F0FFFFAC
:10084200020E2618D8A428EF04F02BEF04F0FFFFC5
:1008520050EF04F0FFFFDEEC07F041EF03F0FFFF83
:100862002204D8A437EF04F03AEF04F0FFFF50EF70
:1008720004F0FFFF2304D8A441EF04F044EF04F096
:10088200FFFF50EF04F0FFFF12EC07F026507EEC62
:1008920007F0000E236E010E256E41EF03F0FFFFFD
:1008A20041EF03F001EF00F0FFFF026E8C848C86B3
:1008B20002BE5EEF04F063EF04F0FFFF016A012A5B
:1008C20065EF04F0FFFF016AFFFF013201328B5036
:1008D20001187F0B01188B6E02BC72EF04F077EFE8
:1008E20004F0FFFF016A012A79EF04F0FFFF016AB9
:1008F200FFFF013A014601468B500118BF0B011858
:100902008B6E02BA87EF04F08CEF04F0FFFF016AEE
:10091200012A8EEF04F0FFFF016AFFFF013A014650
:100922008B500118DF0B01188B6E02B89BEF04F09D
:10093200A0EF04F0FFFF016A012AA2EF04F0FFFF1B
:10094200016AFFFF013A8B500118EF0B01188B6E01
:100952008C96160EFFFFE82EFDD700D08C86023A49
:10096200F00E021602BEB8EF04F0BDEF04F0FFFF76
:10097200016A012ABFEF04F0FFFF016AFFFF0132A3
:1009820001328B5001187F0B01188B6E02BCCCEF29
:1009920004F0D1EF04F0FFFF016A012AD3EF04F063
:1009A200FFFF016AFFFF013A014601468B50011821
:1009B200BF0B01188B6E02BAE1EF04F0E6EF04F010
:1009C200FFFF016A012AE8EF04F0FFFF016AFFFF5F
:1009D200013A01468B500118DF0B01188B6E02B8E9
:1009E200F5EF04F0FAEF04F0FFFF016A012AFCEFD1
:1009F20004F0FFFF016AFFFF013A8B500118EF0B71
:100A020001188B6E8C96160EFFFFE82EFDD700D0D4
:100A12001200FFFFFFFF026E8C948C8602BE14EF61
:100A220005F019EF05F0FFFF016A012A1BEF05F03F
:100A3200FFFF016AFFFF013201328B5001187F0B69
:100A420001188B6E02BC28EF05F02DEF05F0FFFFB9
:100A5200016A012A2FEF05F0FFFF016AFFFF013A49
:100A6200014601468B500118BF0B01188B6E02BA6A
:100A72003DEF05F042EF05F0FFFF016A012A44EF66
:100A820005F0FFFF016AFFFF013A01468B50011892
:100A9200DF0B01188B6E02B851EF05F056EF05F02F
:100AA200FFFF016A012A58EF05F0FFFF016AFFFF0D
:100AB200013A8B500118EF0B01188B6E8C96160EB3
:100AC200FFFFE82EFDD700D08C86023AF00E021608
:100AD20002BE6EEF05F073EF05F0FFFF016A012A17
:100AE20075EF05F0FFFF016AFFFF013201328B5003
:100AF20001187F0B01188B6E02BC82EF05F087EFA5
:100B020005F0FFFF016A012A89EF05F0FFFF016A84
:100B1200FFFF013A014601468B500118BF0B011835
:100B22008B6E02BA97EF05F09CEF05F0FFFF016AAA
:100B3200012A9EEF05F0FFFF016AFFFF013A01461D
:100B42008B500118DF0B01188B6E02B8ABEF05F06A
:100B5200B0EF05F0FFFF016A012AB2EF05F0FFFFD7
:100B6200016AFFFF013A8B500118EF0B01188B6EDF
:100B72008C96160EFFFFE82EFDD700D01200FFFF65
:100B8200FFFF4E0E036EF80EFFFFE82EFDD7032E79
:100B9200FBD700D08C948C868B9E8B9C8B8A8B8807
:100BA2008C96160EFFFFE82EFDD700D00A0E036EBC
:100BB200BE0EFFFFE82EFDD7032EFBD700D08C869A
:100BC2008B9E8B9C8B8A8B888C96160EFFFFE82E51
:100BD200FDD700D0C80EFFFF00F0E82EFCD78C86B0
:100BE2008B9E8B9C8B8A8B888C96160EFFFFE82E31
:100BF200FDD700D08C868B9E8B9C8B8A8B988C9693
:100C0200160EFFFFE82EFDD700D0280E0BEC05F0E4
:100C12000C0E0BEC05F0010E0BEC05F0040E036E4E
:100C2200E50EFFFFE82EFDD7032EFBD700D0060E00
:100C32000BEC05F01200FFFFFFFF05500610D8B4C1
:100C420025EF06F028EF06F0FFFF33EF06F0FFFF77
:100C520005500610D8A430EF06F033EF06F0FFFF80
:100C620039EF06F0FFFF035055EC04F071EF06F088
:100C7200FFFF20EE09F00550D9260650DA22DE5099
:100C8200DE10D8B447EF06F04AEF06F0FFFF67EF39
:100C920006F0FFFF20EE09F00550D9260650DA22B1
:100CA20010EE03F00550E1260650E222DE50E65C2B
:100CB200E650800A0B6EDE50800A0B58D8B064EF03
:100CC20006F067EF06F0FFFF71EF06F0FFFF20EE80
:100CD20003F00550D9260650DA22DE2A000EDD2264
:100CE200FFFF1200FFFFFFFF066E0350D8B47CEF38
:100CF20006F07FEF06F0FFFFC7EF06F0FFFF140ECE
:100D0200036486EF06F089EF06F0FFFFA8EF06F016
:100D1200FFFFC7EF06F0FFFF03507F0F0BEC05F05C
:100D2200C7EF06F0FFFF0350BF0F0BEC05F0C7EF54
:100D320006F0FFFF0350930F0BEC05F0C7EF06F030
:100D4200FFFF0350D30F0BEC05F0C7EF06F0FFFFD8
:100D52000650046E056A0550000AD8B4B3EF06F0D7
:100D6200C7EF06F0FFFF0450010AD8B48CEF06F07B
:100D7200030AD8B493EF06F0010AD8B49AEF06F04A
:100D8200070AD8B4A1EF06F0C7EF06F0FFFF120082
:100D9200FFFFFFFF0EC0D9FF0FC0DAFFDECFF6FF65
:100DA200DDCFF7FF0800FFFFF550250AD8A4DCEFDE
:100DB20006F0DFEF06F0FFFFF9EF06F0FFFF0EC0CF
:100DC200D9FF0FC0DAFFDE2A000EDD22000E486EC8
:100DD200000E476E47C04BF049684A68FFFF0EC0DD
:100DE200D9FF0FC0DAFFDE2A000EDD220FEF07F077
:100DF200FFFF0EC0D9FF0FC0DAFFDECFF6FFDDCF57
:100E0200F7FF0800FFFFF550036E046A0CC005F0FF
:100E12000DC006F01DEC06F0EFEF06F0FFFF12002A
:100E2200FFFFFFFF9CEC08F0010E1A6E060E1B6E10
:100E320087EC08F0050E036E010E74EC06F0000E4E
:100E420055EC04F0060E036E010E74EC06F0010E72
:100E520055EC04F0010E036E020E74EC06F0130E54
:100E62001A6E060E1B6E87EC08F0050E036E020E5C
:100E720074EC06F0000E55EC04F0060E036E020E42
:100E820074EC06F0010E55EC04F01200FFFFFFFFB8
:100E920020EE5CF010EE07F0070EDBCFE3FFE80672
:100EA200FCE2070E036E000E046E000E056E2AECC5
:100EB20008F020EE54F010EE0FF0070EDBCFE3FF48
:100EC200E806FCE20F0E036E000E046E080E056EBD
:100ED2002AEC08F020EE4CF010EE17F0070EDBCFF4
:100EE200E3FFE806FCE2170E036E000E046E100E1E
:100EF200056E2AEC08F01200FFFFFFFF1E6E010EC6
:100F0200036E645074EC06F0110E1A6E060E1B6E20
:100F120087EC08F00B0E036E645074EC06F00B0EB7
:100F22001A6E060E1B6E87EC08F0010E036E1E5041
:100F320074EC06F04E0E1A6E060E1B6E87EC08F06D
:100F42000B0E036E1E5074EC06F0460E1A6E060E61
:100F52001B6E87EC08F01EC064F01200FFFFFFFF5B
:100F620014C018F015C019F0C6EF07F0FFFF12C049
:100F72000CF013C00DF0180E0E6E000E0F6E16C0A0
:100F820010F017C011F0CAEC06F0FFFF18C0F6FF10
:100F920019C0F7FF0800FFFFF5500009D8A4D4EFED
:100FA20007F0D7EF07F0FFFFB7EF07F0FFFF000EE4
:100FB200136E000E126E1200FFFFFFFF9CEC08F092
:100FC2003E0E1A6E060E1B6E87EC08F0030E036EC1
:100FD200010E74EC06F0000E55EC04F0040E036EE4
:100FE200010E74EC06F0010E55EC04F0010E036ED6
:100FF200020E74EC06F0250E1A6E060E1B6E87ECBE
:1010020008F01200FFFFFFFF9CEC08F0360E1A6E8C
:10101200060E1B6E87EC08F0030E036E010E74ECD5
:1010220006F0000E55EC04F0040E036E010E74EC93
:1010320006F0010E55EC04F0010E036E020E74EC84
:1010420006F0250E1A6E060E1B6E87EC08F01200D3
:10105200FFFFFFFF055040090BEC05F0000E066E86
:101062003EEF08F0FFFF03C0D9FF04C0DAFFDF50F4
:1010720055EC04F0034A042A062AFFFF070E066411
:1010820045EF08F048EF08F0FFFF33EF08F0FFFFED
:10109200800E0BEC05F01200FFFFFFFF000E806ECA
:1010A200000E816E000E826E000E836E000E896E3F
:1010B200000E8A6E000E8B6E000E8C6E9268936824
:1010C2000F0E946EF30E956EF19E000EBD6E000E25
:1010D200BA6E1200FFFF560EF66E110EF76E000E7C
:1010E200F86E00EE4CF010EE19F00900F5CFEEFFAD
:1010F200E550E150FAE100EE27F0250EEE6AE8062F
:10110200FDE1000EF86E000129EF03F0FFFF1C0E57
:101112001C6E000E1D6E000E126E000E136E1AC0B3
:1011220014F01BC015F01C0E166E000E176EB0ECFC
:1011320007F01200FFFFFFFF010E0BEC05F0040E9B
:10114200036EE50EFFFFE82EFDD7032EFBD700D07E
:101152001200FFFF0204000E010F111F0D12000EFC
:0D116200010F111F00000E10110E040C02F1
:10117000FFFF4EEC08F0C1EC05F01200FFFFFFFF8F
:020000040020DA
:08000000FFFFFFFFFFFFFFFF00
:020000040030CA
:0E000000FF220E0EFF0081FF0FC00FE00F4029
:00000001FF
